:100000000C942A000C943C000C943C000C943C0092
:100010000C943C000C943C000C943C000C943C0070
:100020000C943C000C943C000C943C000C943C0060
:100030000C943C000C943C000C943C000C943C0050
:100040000C943C000C943C000C943C000C943C0040
:100050000C943C0011241FBECFE5D4E0DEBFCDBF21
:1000600010E0A0E6B0E001C01D92A236B107E1F7B2
:100070000E943E000C9447000C9400008FEF8ABB56
:1000800012BE86E083BF82B78BBB88B7FCCFF894E3
:02009000FFCFA0
:00000001FF
