:100000000C942A000C9447000C9447000C94470071
:100010000C9447000C9447000C9447000C94470044
:100020000C9447000C9447000C9447000C94470034
:100030000C9447000C9447000C9447000C94470024
:100040000C9447000C9447000C9447000C94470014
:100050000C94470011241FBECFE5D4E0DEBFCDBF16
:1000600010E0A0E6B0E0E2ECF0E002C005900D92F6
:10007000AA36B107D9F710E0AAE6B0E001C01D9298
:10008000AC36B107E1F70E9449000C945F000C9474
:1000900000004FEF28EC30E04ABBA0E6B0E00AC019
:1000A0008C918BBB88EB9BE0F9013197F1F70197BD
:1000B000D9F7119680E0AA36B80771F3F1CFF8941A
:0200C000FFCF70
:0A00C2003F065B4F666D7D077F6F00
:00000001FF
