:100000000C942A000C9434000C9434000C943400AA
:100010000C9434000C9434000C9434000C94340090
:100020000C9434000C9434000C9434000C94340080
:100030000C9434000C9434000C9434000C94340070
:100040000C9434000C9434000C9434000C94340060
:100050000C94340011241FBECFE5D4E0DEBFCDBF29
:100060000E9436000C9457000C940000D09A2BE9A3
:1000700091E0D89A22BF93BF08B600FEFDCF88B7A3
:10008000816088BFD89822BF93BF08B600FEFDCF1D
:1000900088B7816088BFEDCF8BE982BF81E083BFE5
:1000A00008B600FEFDCF88B7816088BF0895F89438
:0200B000FFCF80
:00000001FF
