:100000000C942A000C943F000C943F000C943F0089
:100010000C943F000C943F000C943F000C943F0064
:100020000C943F000C943F000C943F000C943F0054
:100030000C943F000C943F000C943F000C943F0044
:100040000C943F000C943F000C943F000C943F0034
:100050000C943F0011241FBECFE5D4E0DEBFCDBF1E
:1000600010E0A0E6B0E0E8E9F1E002C005900D92F2
:10007000AC37B107D9F70E94B4000C94CA000C94B5
:100080000000282F207F22BB90989198929A9298F6
:1000900020ED37E0F9013197F1F790E044E0880F67
:1000A000991F4A95E1F782BB90989198929A9298FD
:1000B000C9010197F1F708958FEF81BB82E00E949B
:1000C000410088E20E9441008EE00E9441000895B4
:1000D00090989198929A929880ED97E00197F1F715
:1000E0000895982F807F82BB909A9198929A9298C7
:1000F00028EE33E048EC50E0FA013197F1F7215057
:100100003040D1F7892F90E054E0880F991F5A951D
:10011000E1F782BB909A9198929A929888EE93E038
:1001200028EC30E0F9013197F1F70197D9F70895FC
:10013000CF93DF93EC0103C00E9471002196888168
:100140008823D1F7DF91CF91089580E80E94410084
:1001500080E690E00E94980080EC0E9441008BE6CF
:1001600090E00E94980008950E945C000E94A50003
:1001700081E00E944100FACF909A9198929A9298C9
:1001800088EE93E028EC30E0F9013197F1F7019720
:08019000D9F70895F894FFCFA0
:10019800474F44204953204F4E450042555420575D
:0C01A800484F2042454C49455645530045
:00000001FF
