:100000000C942A000C9447000C9447000C94470071
:100010000C9447000C9447000C9447000C94470044
:100020000C9447000C9447000C9447000C94470034
:100030000C9447000C9447000C9447000C94470024
:100040000C9447000C9447000C9447000C94470014
:100050000C94470011241FBECFE5D4E0DEBFCDBF16
:1000600010E0A0E6B0E0EEEDF0E002C005900D92E9
:10007000AA36B107D9F710E0AAE6B0E001C01D9298
:10008000AE36B107E1F70E9449000C946D000C9464
:100090000000CF93DF938FEF87BB87B38ABB28EC39
:1000A00030E0C0E6D0E014C088818BBBA0E6B0E0B1
:1000B0000AC08C9188BB88EB9BE0F9013197F1F77E
:1000C0000197D9F7119680E0AA36B80791F72196E3
:0E00D00080E0CA36D80729F3E7CFF894FFCFB7
:0A00DE003F065B4F666D7D077F6FE4
:00000001FF
