:100000000C942A000C943F000C943F000C943F0089
:100010000C943F000C943F000C943F000C943F0064
:100020000C943F000C943F000C943F000C943F0054
:100030000C943F000C943F000C943F000C943F0044
:100040000C943F000C943F000C943F000C943F0034
:100050000C943F0011241FBECFE5D4E0DEBFCDBF1E
:1000600011E0A0E6B0E0EAEAF2E002C005900D92ED
:10007000A437B107D9F70E943C010C9453010C94AA
:100080000000282F207F22BB90989198929A9298F6
:1000900020ED37E0F9013197F1F790E044E0880F67
:1000A000991F4A95E1F782BB90989198929A9298FD
:1000B000C9010197F1F708958FEF81BB82E00E949B
:1000C000410088E20E9441008EE00E9441000895B4
:1000D00090989198929A929880ED97E00197F1F715
:1000E0000895982F807F82BB909A9198929A9298C7
:1000F00028EE33E048EC50E0FA013197F1F7215057
:100100003040D1F7892F90E054E0880F991F5A951D
:10011000E1F782BB909A9198929A929888EE93E038
:1001200028EC30E0F9013197F1F70197D9F70895FC
:10013000CF93DF93EC0103C00E9471002196888168
:100140008823D1F7DF91CF910895DC988BB3806E2F
:100150008BBBC89906C081E00E94410080E690E018
:1001600017C0C99906C081E00E94410081E790E074
:100170000FC0CA9906C081E00E94410082E890E069
:1001800007C0CB9907C081E00E94410083E990E05D
:100190000E949800DD988BB3806D8BBBC89906C018
:1001A00081E00E94410088EA90E017C0C99906C02A
:1001B00081E00E94410089EB90E00FC0CA9906C01F
:1001C00081E00E9441008AEC90E007C0CB9907C013
:1001D00081E00E9441008BED90E00E949800DE9843
:1001E0008BB3806B8BBBC89906C081E00E94410035
:1001F0008CEE90E017C0C99906C081E00E944100D2
:100200008DEF90E00FC0CA9906C081E00E944100C6
:100210008EE091E007C0CB9907C081E00E944100C9
:100220008FE191E00E949800DF988BB380678BBBD1
:10023000C89906C081E00E94410080E391E00FC0B0
:10024000C99906C081E00E94410081E491E007C0A5
:10025000CA9908C081E00E94410082E591E00E94B5
:1002600098000895CB9907C081E00E94410083E681
:1002700091E00E94980008958FE08BBB80EF8ABBCD
:100280000E945C000E94A500FDCF909A9198929ADE
:10029000929888EE93E028EC30E0F9013197F1F77D
:0A02A0000197D9F70895F894FFCFF5
:1002AA004B657920372069732070726573736564B2
:1002BA00004B657920342069732070726573736509
:1002CA0064004B65792031206973207072657373FD
:1002DA006564004B6579204F4E2F4F462069732085
:1002EA0070726573736564004B6579203820697391
:1002FA002070726573736564004B657920352069D7
:10030A00732070726573736564004B6579203220BF
:10031A0069732070726573736564004B6579203068
:10032A002069732070726573736564004B65792068
:10033A00392069732070726573736564004B65793F
:10034A0020362069732070726573736564004B658B
:10035A007920332069732070726573736564004B6A
:10036A006579203D20697320707265737365640036
:10037A004B6579202F2069732070726573736564E9
:10038A00004B6579202A2069732070726573736542
:10039A0064004B6579202D20697320707265737330
:1003AA006564004B6579202B206973207072657330
:0403BA007365640003
:00000001FF
