:100000000C942A000C943C000C943C000C943C0092
:100010000C943C000C943C000C943C000C943C0070
:100020000C943C000C943C000C943C000C943C0060
:100030000C943C000C943C000C943C000C943C0050
:100040000C943C000C943C000C943C000C943C0040
:100050000C943C0011241FBECFE5D4E0DEBFCDBF21
:1000600010E0A0E6B0E001C01D92A236B107E1F7B2
:100070000E943E000C94A5000C940000DF92EF92C9
:10008000FF920F931F93DD24DA949FE3E92E28EC6F
:1000900030E086E0F82E0BE51FE4B6E6ADE67DE73E
:1000A00067E05FE74FE6DABAEBBA88EB9BE0F9016D
:1000B0003197F1F70197D9F7FBBA88EB9BE0F9018B
:1000C0003197F1F70197D9F70BBB88EB9BE0F9016A
:1000D0003197F1F70197D9F71BBB88EB9BE0F9014A
:1000E0003197F1F70197D9F7BBBB88EB9BE0F9019A
:1000F0003197F1F70197D9F7ABBB88EB9BE0F9019A
:100100003197F1F70197D9F77BBB88EB9BE0F901B9
:100110003197F1F70197D9F76BBB88EB9BE0F901B9
:100120003197F1F70197D9F75BBB88EB9BE0F901B9
:100130003197F1F70197D9F74BBB88EB9BE0F901B9
:0E0140003197F1F70197D9F7AECFF894FFCFC2
:00000001FF
