:100000000C942A000C943C000C943C000C943C0092
:100010000C943C000C943C000C943C000C943C0070
:100020000C943C000C943C000C943C000C943C0060
:100030000C943C000C943C000C943C000C943C0050
:100040000C943C000C943C000C943C000C943C0040
:100050000C943C0011241FBECFE5D4E0DEBFCDBF21
:1000600010E0A0E6B0E001C01D92A236B107E1F7B2
:100070000E943E000C9458000C940000BB9A8F9A8A
:1000800083E682BF99E693BF84BD89E785BD40E2E0
:100090005EE420E030E023BD83B58CBFCA01019748
:1000A000F1F72F5F3F4F81E02030380791F3F3CF16
:0400B000F894FFCFF2
:00000001FF
