:100000000C942A000C943C000C943C000C943C0092
:100010000C943C000C943C000C943C000C943C0070
:100020000C943C000C943C000C943C000C943C0060
:100030000C943C000C943C000C943C000C943C0050
:100040000C943C000C943C000C943C000C943C0040
:100050000C943C0011241FBECFE5D4E0DEBFCDBF21
:1000600010E0A0E6B0E001C01D92A236B107E1F7B2
:100070000E94BC000C94FF000C94000012BE86E0AD
:1000800083BF0895282F207F22BB90989198929A41
:10009000929820ED37E0F9013197F1F790E044E0D4
:1000A000880F991F4A95E1F782BB90989198929A90
:1000B0009298C9010197F1F708958FEF81BB82E013
:1000C0000E94420088E20E9442008EE00E944200AC
:1000D000089590989198929A929880ED97E0019760
:1000E000F1F70895982F807F82BB909A9198929A09
:1000F000929824EF31E048EC50E0FA013197F1F7A3
:1001000021503040D1F7892F90E054E0880F991F9B
:100110005A95E1F782BB909A9198929A929884EFBF
:1001200091E028EC30E0F9013197F1F70197D9F728
:100130000895FF920F931F93F82E192F03E8802F35
:100140000E9442008F2D912F6AE070E00E94D8003B
:10015000282F8F2D912F6AE070E00E94D800F62E94
:10016000172F822F805D0E94720001500F3739F7E0
:100170001F910F91FF9008950E945D0012BE86E0CE
:1001800083BF81E00E94420082B790E00E94990004
:1001900088B7F7CF909A9198929A929884EF91E0CD
:1001A00028EC30E0F9013197F1F70197D9F708957C
:1001B00097FB092E07260AD077FD04D00CD006D075
:1001C00000201AF4709561957F4F0895F6F7909589
:1001D00081959F4F0895AA1BBB1B51E107C0AA1F21
:1001E000BB1FA617B70710F0A61BB70B881F991FD8
:1001F0005A95A9F780959095BC01CD010895F89482
:02020000FFCF2E
:00000001FF
