:100000000C942A000C943F000C943F000C943F0089
:100010000C943F000C943F000C943F000C943F0064
:100020000C943F000C943F000C943F000C943F0054
:100030000C943F000C943F000C943F000C943F0044
:100040000C943F000C943F000C943F000C943F0034
:100050000C943F0011241FBECFE5D4E0DEBFCDBF1E
:1000600010E0A0E6B0E0E6E8F1E002C005900D92F5
:10007000AA37B107D9F70E94AC000C94C1000C94C8
:100080000000282F207F22BB9098919A919820ED14
:1000900037E0F9013197F1F790E044E0880F991FBC
:1000A0004A95E1F782BB9098919A9198C90101977E
:1000B000F1F708958FEF81BB82E00E94410088E252
:1000C0000E9441008EE00E94410008959098919A0C
:1000D000919880ED97E00197F1F70895982F807F30
:1000E00082BB909A919A919828EE33E048EC50E0C8
:1000F000FA013197F1F721503040D1F7892F90E084
:1001000054E0880F991F5A95E1F782BB909A919A13
:10011000919888EE93E028EC30E0F9013197F1F7FF
:100120000197D9F70895CF93DF93EC018FE804C0CE
:100130000E946E0021968CE10E94410088818823F4
:10014000B9F7DF91CF91089580E80E94410080E6E1
:1001500090E00E94930008950E945A000E94A4001B
:1001600081E00E944100FACF909A919A919888EE8E
:1001700093E028EC30E0F9013197F1F70197D9F7D6
:060180000895F894FFCF82
:1001860057454C434F4D4520544F2043455450410D
:0A01960020494E464F5445434800EF
:00000001FF
