:100000000C942A000C943F000C943F000C943F0089
:100010000C943F000C943F000C943F000C943F0064
:100020000C943F000C943F000C943F000C943F0054
:100030000C943F000C943F000C943F000C943F0044
:100040000C943F000C943F000C943F000C943F0034
:100050000C943F0011241FBECFE5D4E0DEBFCDBF1E
:1000600010E0A0E6B0E0E8EAF1E002C005900D92F1
:10007000A639B107D9F70E94BD000C94D2000C94A8
:100080000000282F207F22BB9098919A919820ED14
:1000900037E0F9013197F1F790E044E0880F991FBC
:1000A0004A95E1F782BB9098919A9198C90101977E
:1000B000F1F708958FEF81BB82E00E94410088E252
:1000C0000E9441008EE00E94410008959098919A0C
:1000D000919880ED97E00197F1F70895982F807F30
:1000E00082BB909A919A919828EE33E048EC50E0C8
:1000F000FA013197F1F721503040D1F7892F90E084
:1001000054E0880F991F5A95E1F782BB909A919A13
:10011000919888EE93E028EC30E0F9013197F1F7FF
:100120000197D9F70895CF93DF93EC0103C00E94A4
:100130006E00219688818823D1F7DF91CF910895B1
:1001400080E80E94410080E690E00E94930080ECED
:100150000E9441008BE690E00E94930080E90E949B
:1001600041008CE790E00E94930080ED0E944100E6
:1001700088E890E00E94930008950E945A000E942F
:10018000A00081E00E944100FACF909A919A919844
:1001900088EE93E028EC30E0F9013197F1F7019710
:0801A000D9F70895F894FFCF90
:1001A800474F44204953204F4E450042555420574D
:1001B800484F2042454C4945564553004F48204733
:1001C8004F442121212121004E4F204F4E4521210E
:0601D8002121212100009D
:00000001FF
