:100000000C942A000C9434000C9434000C943400AA
:100010000C9434000C9434000C9434000C94340090
:100020000C9434000C9434000C9434000C94340080
:100030000C9434000C9434000C9434000C94340070
:100040000C9434000C9434000C9434000C94340060
:100050000C94340011241FBECFE5D4E0DEBFCDBF29
:100060000E94A4000C94E2000C940000282F207F32
:1000700022BB90989198929A92982AEF30E0F901D9
:100080003197F1F790E044E0880F991F4A95E1F726
:1000900082BB90989198929A9298C9010197F1F732
:1000A00008958FEF81BB82E00E94360088E20E94B3
:1000B00036008EE00E943600089590989198929AAA
:1000C00092988AEF90E00197F1F70895282F207F0A
:1000D00022BB909A9198929A92982AEF30E0F90177
:1000E0003197F1F790E054E0880F991F5A95E1F7A6
:1000F00082BB909A9198929A9298C9010197F1F7D0
:100100000895FF920F931F93F82E192F02E8802F66
:100110000E9436008F2D912F6AE070E00E94BB0094
:10012000282F8F2D912F6AE070E00E94BB00F62EE1
:10013000172F822F805D0E94660001500F3739F71C
:100140001F910F91FF90089512BE86E083BF0E9419
:10015000510082B790E00E94810081E00E94360049
:1001600088B7F7CF909A9198929A92988AEF90E0F8
:100170000197F1F7089597FB092E07260AD077FD1E
:1001800004D00CD006D000201AF4709561957F4FF2
:100190000895F6F7909581959F4F0895AA1BBB1B74
:1001A00051E107C0AA1FBB1FA617B70710F0A61B77
:1001B000B70B881F991F5A95A9F780959095BC0198
:0801C000CD010895F894FFCF72
:00000001FF
