:100000000C942A000C943F000C943F000C943F0089
:100010000C943F000C943F000C943F000C943F0064
:100020000C943F000C943F000C943F000C943F0054
:100030000C943F000C943F000C943F000C943F0044
:100040000C943F000C943F000C943F000C943F0034
:100050000C943F0011241FBECFE5D4E0DEBFCDBF1E
:1000600010E0A0E6B0E0EAE1F1E002C005900D92F8
:10007000AC38B107D9F70E946F000C948B000C9438
:10008000000083E389B9539A80B5866880BD0895DE
:10009000A0E6B0E028EC30E00BC08CB95D9BFECF51
:1000A00088EE93E0F9013197F1F70197D9F71196AE
:1000B0008C91882391F7A2E7B0E028EC30E00BC0E8
:1000C0008CB95D9BFECF88EE93E0F9013197F1F793
:1000D0000197D9F711968C91882391F7089583E3BE
:1000E00089B9539A80B5866880BD0E944800FDCFCB
:1000F000DC0128EC30E00BC08CB95D9BFECF88EEB4
:1001000093E0F9013197F1F70197D9F711968C91A6
:0A011000882391F70895F894FFCFBB
:10011A0057454C434F4D4520544F20434554504179
:10012A000D00494E464F54454348205052495641C6
:0C013A005445204C494D495445440D00EB
:00000001FF
