:100000000C942A000C9434000C9434000C943400AA
:100010000C9434000C9434000C9434000C94340090
:100020000C9434000C9434000C9434000C94340080
:100030000C9434000C9434000C9434000C94340070
:100040000C9434000C9434000C9434000C94340060
:100050000C94340011241FBECFE5D4E0DEBFCDBF29
:100060000E9436000C9451000C9400008FEF8ABB64
:1000700083E389B9549A80B5866880BD5F9BFECFC3
:100080008CB18BBBFBCF8FEF8ABB83E389B9549ACA
:1000900080B5866880BD08955F9BFECF8CB18BBB19
:0600A0000895F894FFCF63
:00000001FF
