:100000000C942A000C9434000C9434000C943400AA
:100010000C9434000C9434000C9434000C94340090
:100020000C9434000C9434000C9434000C94340080
:100030000C9434000C9434000C9434000C94340070
:100040000C9434000C9434000C9434000C94340060
:100050000C94340011241FBECFE5D4E0DEBFCDBF29
:100060000E9436000C943F000C940000D0988FEF53
:1000700084BBC89B02C015BAFCCF85BBFACFF894ED
:02008000FFCFB0
:00000001FF
