:100000000C942A000C943C000C943C000C943C0092
:100010000C943C000C943C000C943C000C943C0070
:100020000C943C000C943C000C943C000C943C0060
:100030000C943C000C943C000C943C000C943C0050
:100040000C943C000C943C000C943C000C943C0040
:100050000C943C0011241FBECFE5D4E0DEBFCDBF21
:1000600010E0A0E6B0E001C01D92A236B107E1F7B2
:100070000E943E000C945F000C940000D09A23E88C
:1000800092E0D89A22BF93BF08B600FEFDCF88B792
:10009000816088BFD89822BF93BF08B600FEFDCF0D
:1000A00088B7816088BFEDCF83E882BF82E083BFDD
:1000B00008B600FEFDCF88B7816088BF0895F89428
:0200C000FFCF70
:00000001FF
